:020000040000FA
:1000000002EF00F0620ED36E806A030E926E000E55
:10001000936EF26A800EF16EF06A9F6AA26A9D6A20
:10002000A06AD09EA66AD190BD6AF8EC05F008ECF3
:1000300005F043EC05F032EC00F032EC00F0D7ECC8
:1000400004F0000EBFEC04F076EC05F0FFEC05F0D8
:100050000EEC06F0A6EC05F024EC06F0C6EC05F07C
:1000600026EF00F047EC00F047EC00F047EC00F022
:1000700047EC00F047EC00F047EC00F047EC00F0F4
:1000800047EC00F047EC00F047EC00F01200FA0EED
:10009000806F4BEF00F0C70E816F010E826F812FD2
:1000A00053EF00F0822F4FEF00F0802F4BEF00F066
:1000B000000CF926530C570C520C2D0C500C4F0C05
:1000C000570C450C520C200C4D0C650C740C650C37
:1000D000720C000CF926460C380C4B0C470C4C0CDF
:1000E000000CF926460C570C440C200C000CF92689
:1000F000520C450C460C200C000C000005000A00B8
:100100000F00140018001D00220027002C003100F1
:1001100036003B003F00440049004E0053005800A9
:100120005D00620067006B00700075007A007F0060
:10013000840089008E00920097009C00A100A60018
:10014000AB00B000B500BA00BE00C300C800CD00CF
:10015000D200D700DC00E100E500EA00EF00F40087
:10016000F900FE00030108010D01110116011B0138
:10017000200125012A012F01340139013D014201ED
:1001800047014C01510156015B01600164016901A5
:100190006E01730178017D01820187018C0190015C
:1001A00095019A019F01A401A901AE01B301B70114
:1001B000BC01C101C601CB01D001D501DA01DF01CB
:1001C000E301E801ED01F201F701FC010102060281
:1001D0000A020F02140219021E02230228022D0233
:1001E000320236023B02400245024A024F025402EA
:1001F00059025D02620267026C02710276027B02A2
:100200008002850289028E02930298029D02A20258
:10021000A702AC02B002B502BA02BF02C402C90210
:10022000CE02D302D802DC02E102E602EB02F002C7
:10023000F502FA02FF02030308030D03120317037A
:100240001C03210326032B032F03340339033E032E
:10025000430348034D03520356035B0360036503E6
:100260006A036F03740379037E03820387038C039D
:10027000910396039B03A003A503AA03AE03B30354
:10028000B803BD03C203C703CC03D103D503DA030C
:10029000DF03E403E903EE03F303F803FD030104C2
:1002A00006040B04100415041A041F042404280473
:1002B0002D04320437043C04410446044B0450042A
:1002C000540459045E04630468046D0472047704E2
:1002D0007B04800485048A048F04940499049E049A
:1002E000A304A704AC04B104B604BB04C004C50451
:1002F000CA04CE04D304D804DD04E204E704EC0409
:10030000F104F604FA04FF04040509050E051305BB
:1003100018051D05210526052B05300535053A056F
:100320003F05440549054D05520557055C05610526
:1003300066056B057005740579057E0583058805DE
:100340008D05920597059C05A005A505AA05AF0595
:10035000B405B905BE05C305C705CC05D105D6054D
:10036000DB05E005E505EA05EF05F305F805FD0504
:10037000020607060C06110616061B061F062406B3
:1003800029062E06330638063D06420646064B066B
:10039000500655065A065F06640669066E06720622
:1003A00077067C06810686068B06900695069906DA
:1003B0009E06A306A806AD06B206B706BC06C10691
:1003C000C506CA06CF06D406D906DE06E306E80649
:1003D000EC06F106F606FB06000705070A070F07FD
:1003E000140718071D07220727072C0731073607B0
:1003F0003B073F07440749074E07530758075D0768
:10040000620767076B07700775077A077F0784071E
:1004100089078E07920797079C07A107A607AB07D6
:10042000B007B507BA07BE07C307C807CD07D2078D
:10043000D707DC07E107E507EA07EF07F407F90745
:10044000FE07030808080D08110816081B082008F5
:1004500025082A082F08340838083D0842084708AC
:100460004C08510856085B086008640869086E0863
:10047000730878087D08820887088C08900895081A
:100480009A089F08A408A908AE08B308B708BC08D2
:10049000C108C608CB08D008D508DA08DF08E30889
:1004A000E808ED08F208F708FC08010906090A093E
:1004B0000F09140919091E09230928092D093209F0
:1004C00036093B09400945094A094F0954095909A8
:1004D0005D09620967096C09710976097B09800960
:1004E000850989098E09930998099D09A209A70917
:1004F000AC09B009B509BA09BF09C409C909CE09CF
:10050000D309D809DC09E109E609EB09F009F50985
:10051000FA09FF09030A080A0D0A120A170A1C0A37
:10052000210A260A2B0A2F0A340A390A3E0A430AEC
:10053000480A4D0A520A560A5B0A600A650A6A0AA4
:100540006F0A740A790A7E0A820A870A8C0A910A5B
:10055000960A9B0AA00AA50AA90AAE0AB30AB80A13
:10056000BD0AC20AC70ACC0AD10AD50ADA0ADF0ACA
:10057000E40AE90AEE0AF30AF80AFD0A010B060B7F
:100580000B0B100B150B1A0B1F0B240B280B2D0B31
:10059000320B370B3C0B410B460B4B0B500B540BE8
:1005A000590B5E0B630B680B6D0B720B770B7B0BA0
:1005B000800B850B8A0B8F0B940B990B9E0BA30B57
:1005C000A70BAC0BB10BB60BBB0BC00BC50BCA0B0F
:1005D000CE0BD30BD80BDD0BE20BE70BEC0BF10BC7
:1005E000F60BFA0BFF0B040C090C0E0C130C180C79
:1005F0001D0C210C260C2B0C300C350C3A0C3F0C2E
:10060000440C490C4D0C520C570C5C0C610C660CE4
:100610006B0C700C740C790C7E0C830C880C8D0C9C
:10062000920C970C9C0CA00CA50CAA0CAF0CB40C53
:10063000B90CBE0CC30CC70CCC0CD10CD60CDB0C0B
:10064000E00CE50CEA0CEF0CF30CF80CFD0C020DC1
:10065000070D0C0D110D160D1A0D1F0D240D290D72
:100660002E0D330D380D3D0D420D460D4B0D500D29
:10067000550D5A0D5F0D640D690D6E0D720D770DE0
:100680007C0D810D860D8B0D900D950D990D9E0D98
:10069000A30DA80DAD0DB20DB70DBC0DC10DC50D4F
:1006A000CA0DCF0DD40DD90DDE0DE30DE80DEC0D07
:1006B000F10DF60DFB0D000E050E0A0E0F0E140EB9
:1006C000180E1D0E220E270E2C0E310E360E3B0E6E
:1006D0003F0E440E490E4E0E530E580E5D0E620E26
:1006E000670E6B0E700E750E7A0E7F0E840E890EDD
:1006F0008E0E920E970E9C0EA10EA60EAB0EB00E95
:10070000B50EBA0EBE0EC30EC80ECD0ED20ED70E4B
:10071000DC0EE10EE50EEA0EEF0EF40EF90EFE0E03
:10072000030F080F0D0F110F160F1B0F200F250FB2
:100730002A0F2F0F340F380F3D0F420F470F4C0F6A
:10074000510F560F5B0F600F640F690F6E0F730F21
:10075000780F7D0F820F870F8B0F900F950F9A0FD9
:100760009F0FA40FA90FAE0FB30FB70FBC0FC10F90
:10077000C60FCB0FD00FD50FDA0FDF0FE30FE80F47
:10078000ED0FF20FF70FFC0F011006100A100F10FB
:10079000141019101E10231028102D1032103610AE
:1007A0003B10401045104A104F10541059105D1066
:1007B000621067106C10711076107B10801085101D
:1007C00089108E10931098109D10A210A710AC10D5
:1007D000B010B510BA10BF10C410C910CE10D3108D
:1007E000D810DC10E110E610EB10F010F510FA1044
:1007F000FF10031108110D11121117111C112111F5
:1008000026112B112F11341139113E1143114811AA
:100810004D11521156115B11601165116A116F1162
:10082000741179117E11821187118C119111961119
:100830009B11A011A511A911AE11B311B811BD11D1
:10084000C211C711CC11D111D511DA11DF11E41188
:10085000E911EE11F311F811FC11011206120B123D
:10086000101215121A121F12241228122D123212EF
:1008700037123C12411246124B12501254125912A6
:100880005E12631268126D12721277127B1280125E
:1008900085128A128F12941299129E12A312A71215
:1008A000AC12B112B612BB12C012C512CA12CE12CD
:1008B000D312D812DD12E212E712EC12F112F61284
:1008C000FA12FF12041309130E13131318131D1336
:1008D000211326132B13301335133A133F134413EC
:1008E00049134D13521357135C13611366136B13A3
:1008F0007013741379137E1383138186000081961D
:100900000000000C846B848B8489842F85EF04F0B5
:100910001200FF0E9CEF04F0C80E9CEF04F0640E72
:100920009CEF04F0320E9CEF04F0140E9CEF04F0E8
:10093000050E9CEF04F0010E846FC70E856F010E4B
:10094000866F852FA7EF04F0862FA1EF04F0842F88
:100950009DEF04F0000C876FF00B816E81947DECAD
:1009600004F08739F00B816E81947DEC04F09BECF0
:1009700004F08751FC0BD8B49BEC04F01200886F94
:100980001008D8A0C9EF04F0D8A4CEEF04F0D2EF3D
:1009900004F0D8A4D2EF04F0D6EF04F08851800F11
:1009A000D4EF04F08851B00FABEC04F01200010E4C
:1009B000ABEC04F01200C00EABEC04F01200020D20
:1009C000090EFA6EF350F926300C310C320C330C50
:1009D000340C350C360C370C380C390C410C420CED
:1009E000430C440C450C460C12008C6B8D6B8E6BCB
:1009F000100E896F8B378A378E518E2107008E6FCC
:100A00008D518D2107008D6F8C37892FF3D7120000
:100A100098EC04F098EC04F098EC04F0300E816E41
:100A20007DEC04F098EC04F07DEC04F082EC04F032
:100A30007DEC04F082EC04F0200E816E7DEC04F07D
:100A400082EC04F0280EABEC04F0100EABEC04F0DA
:100A5000010EABEC04F0060EABEC04F00C0EABECAC
:100A600004F0D7EC04F01200876FF00B816E8184E4
:100A70007DEC04F08739F00B816E81847DEC04F00D
:100A800098EC04F01200000E8F6F8F5159EC00F0BB
:100A9000000AD8B452EF05F034EC05F08F2B8F2B01
:100AA00045EF05F0100EBFEC04F0000E8F6F8F5174
:100AB0006AEC00F0000AD8B464EF05F034EC05F0FD
:100AC0008F2B8F2B57EF05F01C0EBFEC04F0000EA0
:100AD0008F6F8F51F1EC05F0000AD8B475EF05F077
:100AE00034EC05F08F2B69EF05F01200000E8F6FCC
:100AF0008F5171EC00F0000AD8B485EF05F034ECAA
:100B000005F08F2B8F2B78EF05F0100EBFEC04F063
:100B1000000E8F6F8F5177EC00F0000AD8B497EF7A
:100B200005F034EC05F08F2B8F2B8AEF05F01200C7
:100B3000906F90390F0BDFEC04F034EC05F090511E
:100B40000F0BDFEC04F034EC05F01200050EBFECE7
:100B500004F09251916F98EC05F0935198EC05F0E8
:100B6000680E34EC05F02D0E34EC05F0150EBFECDC
:100B700004F0945198EC05F0955198EC05F0680E4E
:100B800034EC05F02D0E34EC05F012000B0EBFEC2A
:100B900004F09B518A6F9C518B6FF5EC04F08D51E2
:100BA00098EC05F08E5198EC05F06D0E34EC05F0E4
:100BB000560E34EC05F01B0EBFEC04F09D518A6F0D
:100BC0009E518B6FF5EC04F08D5198EC05F08E5131
:100BD00098EC05F06D0E34EC05F0560E34EC05F093
:100BE0001200A96EA69CA69EA680A850A66A120016
:100BF000000EC26E7C0EC16EB50EC06E1200C298A1
:100C0000C296C294C2801DEC06F0C282C2B206EF48
:100C100006F0C450926FC350936F1200C298C296F0
:100C2000C284C2801DEC06F0C282C2B215EF06F08B
:100C3000C450946FC350956F1200966B9681968343
:100C4000962F20EF06F012009351986F020E980332
:100C5000F350986FF4509F6F9251976F020E970365
:100C6000F3509F25976F4FEC06F099519B6F9A5167
:100C70009C6F9551986F020E9803F350986FF45043
:100C80009F6F9451976F020E9703F3509F25976FB4
:100C90004FEC06F099519D6F9A519E6F120098513A
:100CA000FA0FD8A055EF06F0972BF66E9751F76E16
:100CB000000EF86E0900F5509A6F0900F550996F13
:020CC000120020
:020000040030CA
:03000100080D1EC9
:02000500008178
:0200000400F00A
:0500000056302E360011
:00000001FF
